:100000000C9464000C948C000C948C000C948C0068
:100010000C948C000C948C000C948C000C948C0030
:100020000C948C000C948C000C948C000C948C0020
:100030000C948C000C948C000C941A080C948C007A
:100040000C9449080C948C000C94090C0C943B0CF7
:100050000C948C000C948C000C948C000C948C00F0
:100060000C948C000C948C0044696500000000081E
:10007000000201000003040700000000000000006F
:10008000010204081020408001020408102001022F
:1000900004081020040404040404040402020202FC
:1000A00002020303030303030000000023002600F1
:1000B000290000000000250028002B00000000009F
:1000C000240027002A006B0C11241FBECFEFD8E0BC
:1000D000DEBFCDBF11E0A0E0B1E0EAE4FCE102C088
:1000E00005900D92A037B107D9F722E0A0E7B1E063
:1000F00001C01D92A737B207E1F710E0C8ECD0E0CD
:1001000004C02297FE010E94F10CC63CD107C9F73A
:100110000E94FA0B0C94230E0C940000CF92DF92F5
:10012000EF92FF920F931F93E82FF92F05C0015014
:1001300011092109310961F1908196239417B9F3CE
:1001400005C0015011092109310911F1908196234F
:100150009413F7CFC12CD12CE12CF12C0AC08FEFD6
:10016000C81AD80AE80AF80A0C151D052E053F051D
:1001700079F080818623841791F36C2D7D2D8E2D4F
:100180009F2D1F910F91FF90EF90DF90CF900895DA
:1001900060E070E080E090E01F910F91FF90EF90A1
:1001A000DF90CF90089561E08CE00E94F70861E055
:1001B0008CE00E94300980E390E00E94E60560E058
:1001C0008CE00E94300980E390E00E94E605EFCFCA
:1001D00061E08DE00E94F70861E08DE00E94300947
:1001E00082E990E00E94E60560E08DE00E9430091F
:1001F00082E990E00E94E605EFCF60E082E00E9495
:10020000F70860E084E00E94F70861E086E00E9461
:10021000F70860E089E00E94F70882E00E94660922
:10022000EC0184E00E94660984E00E94660984E093
:100230000E946609CD2B11F461E001C060E086E008
:100240000E94300989E090E00E94E605E6CFCF9257
:10025000DF92EF92FF92F82EE62E60E00E943009C6
:1002600080E090E00E94E60561E08F2D0E94300959
:1002700080E090E00E94E60560E08F2D0E9430094A
:1002800020E432E44FE050E061E08E2D0E941D0832
:100290006B017C0180E390E00E94E605C701B60196
:1002A0002AE330E040E050E00E94D00CCA01B901DE
:1002B000FF90EF90DF90CF90089561E08EE00E9474
:1002C000F70860E08FE00E94F70860E081E10E949B
:1002D000F70860E083E10E94F7086FE070E08EE0CD
:1002E00090E00E9427012B013C0161E170E08EE06B
:1002F00090E00E9427014B015C0163E170E08EE019
:1003000090E00E9427016B017C012AE030E0B301FC
:10031000A20186ED91E00E946A0A66E071E086ED36
:1003200091E00E94F2092AE030E0B501A40186EDD7
:1003300091E00E946A0A6BE071E086ED91E00E9414
:10034000F2092AE030E0B701A60186ED91E00E94B3
:100350006A0A61E171E086ED91E00E94F20986EDA2
:1003600091E00E94FB09B9CF26E040E855E260E049
:1003700070E086ED91E00E94970BA12CB12CC12C6E
:10038000D12CE12CF12C03E020E030E046E950E0F4
:1003900065E171E088EE90E00E94500320E030E0DB
:1003A00046E950E06FE171E083ED90E00E94500378
:1003B00001E020E030E048EC50E06CE271E08DE5D7
:1003C00091E00E94500320E030E048EC50E066E30A
:1003D00071E08DEF90E00E9450030E94640468E693
:1003E00070E086ED91E00E94FF09FFCF08950C9424
:1003F000F6010895EC01F89461E08DE00E94F708A1
:1004000000E010E00C171D07F4F461E08DE00E949D
:10041000300980E899EAA3E0B0E000000197A10963
:10042000B109D9F760E08DE00E94300940E859EA4F
:1004300063E070E000004150510961097109D1F792
:100440000F5F1F4FDFCF40E05AE668E170E0000029
:100450004150510961097109D1F7D2CF81E090E093
:100460000E94FA0182E090E00E94FA0183E090E0AD
:100470000E94FA01FC010396928381832FEF3FEFE4
:10048000348323839683858390878783108208959E
:10049000FC01118610860895CF93DF939C01FB0128
:1004A000DC011196CD91DC911297D383C2838C81AC
:1004B0009D81958384838C819D81DC0113967C933F
:1004C0006E9312977D836C8331872087F901808139
:1004D0008F5F8083DF91CF9108950F931F93CF9308
:1004E000DF938C01FB01208131812F3F8FEF380793
:1004F00021F4E801AF81B8850EC0D8011396129699
:100500008D919C911397EC014881598124173507EF
:1005100010F0DC01F4CF12968D919C911397938388
:100520008283EC01FD83EC83B583A4831396FC9353
:10053000EE93129711870087F80180818F5F808387
:10054000DF91CF911F910F910895CF93DF93FC011D
:10055000A085B1858281938124813581EC013D8321
:100560002C83C481D5819B838A8311968D919C9124
:1005700012978E179F0721F41296DC93CE93119752
:10058000118610868C9181508C93DF91CF910895C4
:100590000F931F93CF93DF9300D0CDB7DEB789833E
:1005A0009A830E94AA0489819A810E94F50C8C0189
:1005B0000E9470050115110511F40E943202C80154
:1005C0000F900F90DF91CF911F910F910895CF93CE
:1005D000DF9300D0CDB7DEB7009771F089839A839F
:1005E0000E94AA0489819A810E948D0D0F900F901C
:1005F000DF91CF910C9470050F900F90DF91CF9108
:100600000895E0919301F09194018081811103C0DC
:100610008FEF9FEF0CC0E0919301F0919401058062
:10062000F681E02D0680F781E02D82819381909301
:100630007201809371010895CF93DF93EC01E091F3
:10064000CB01F091CC0193838283809179019091C9
:100650007A016091CB017091CC01C817D90750F491
:1006600080919101909192016E5F7F4FDF91CF91C8
:100670000C946D0280919301909194016E5F7F4F75
:100680000E946D028091710190917201C817D90783
:1006900020F4D0937201C0937101DF91CF9108953E
:1006A0003F924F925F926F927F928F929F92AF9202
:1006B000BF92CF92DF92EF92FF920F931F93CF934F
:1006C000DF934C01162F372E5A013901009711F490
:1006D0000E942E02802F90E0049714F00E942E02B8
:1006E000C114D10439F4C5010E94C8026C010097FD
:1006F00009F4D7C089E290E00E94C802EC0100979B
:10070000A1F0D88ECF8AA50165EA70E0C6010E94EB
:100710001C0E21E0A21AB1084F88588C4A0C5B1CB1
:10072000E12FF32D80E090E008C0C6010E94E702AF
:10073000B8C001968830910561F0BF0141919E01DA
:10074000280F391FD90159964C93DB012C912111A7
:10075000F0CF18A2102F043008F013E01E8B19A35D
:100760001AA26E01B2E0CB0ED11CC6010E94480253
:10077000CE010C960E944802D987C88784E090E099
:10078000811B91099D878C87DB8BCA8B1BA21CA2C6
:100790001DA21EA218A61FA2A301B401C2010E949D
:1007A000C50699838883E114F10419F0F701D18318
:1007B000C0830FB6F8940F9280917B018F5F809376
:1007C0007B018091CB019091CC01892BA9F5D0932D
:1007D000CC01C093CB0180917B018130E1F587EAA8
:1007E00091E00E943A0280EB91E00E943A0289EB8C
:1007F00091E00E943A0282EC91E00E943A028EE976
:1008000091E00E943A0285E991E00E943A0288E86C
:1008100091E00E943A028FE791E00E943A028EE94D
:1008200091E0909394018093930185E991E09093F6
:100830009201809391010FC08091770181110BC0CB
:10084000E091CB01F091CC018689081720F0D0937C
:10085000CC01C093CB01809173018F5F80937301B2
:100860008E8990917801981710F480937801F9E0BF
:100870008F9FC0011124B60189559E4F0E944C02E2
:100880000F900FBE80917701882349F0E091CB0152
:10089000F091CC018689801710F40E94650781E0F1
:1008A00001C08FEFDF91CF911F910F91FF90EF90DB
:1008B000DF90CF90BF90AF909F908F907F906F9080
:1008C0005F904F903F900895AF92BF92CF92DF928A
:1008D000EF92FF920F93A12CB12CC12CD12C8CE75D
:1008E000E82E81E0F82E00E020E030E044E650E021
:1008F0006AE471E080E196E00E9450038130B9F42F
:10090000F8948FEF9FEF909372018093710181E0D3
:100910008093770110927A01109279010F91FF90E4
:10092000EF90DF90CF90BF90AF900C943107811182
:1009300009C00F91FF90EF90DF90CF90BF90AF90E4
:100940000C942E020F91FF90EF90DF90CF90BF900C
:10095000AF900895809170018F5F8093700108952A
:10096000CF92DF92EF92FF920F931F93CF93DF937B
:100970008091700181119CC08091790190917A01E0
:10098000019690937A0180937901009179011091F9
:100990007A0101151105F9F4E0919301F0919401A8
:1009A000808181110E942E02809193019091940187
:1009B0002091910130919201309394012093930101
:1009C0009093920180939101809174018F5F809345
:1009D00074010E9401038091710190917201D12CE8
:1009E0000817190708F44DC099E0C92EE09193014A
:1009F000F09194018081811107C08FEF9FEF909358
:100A00007201809371013DC0E0919301F0919401D6
:100A10000580F681E02DC681D7812A813B810217AE
:100A2000130728F430937201209371012AC07E01CC
:100A300082E0E80EF11CC7010E94A5028C899D8905
:100A4000892B21F0CE010C960E94A5022E8980915F
:100A50007801821710F420937801C29EC0011124FE
:100A6000B70189559E4F0E944C02E091CB01F09155
:100A7000CC019E898689981708F4B8CFDD24D394D9
:100A8000B5CFE091CB01F091CC01E68989E0E89FF8
:100A9000F0011124E955FE4F8081823010F0DD24F1
:100AA000D3948091760181110BC00E94F90108C096
:100AB000809176018F5F809376010E94F901D12C9D
:100AC00080917501882311F0DD24D3948D2DDF9161
:100AD000CF911F910F91FF90EF90DF90CF900895ED
:100AE000EF92FF920F931F93CF93DF93809170014A
:100AF000811102C00E942E020FB6F8940F928091CD
:100B0000700181508093700180917001882311F0F1
:100B100080E053C080917B018823D1F329E0F22E3D
:100B2000EE24E39480918801882351F1E0918D01B6
:100B3000F0918E01C681D781CE010C960E94A5024C
:100B40008E010E5F1F4FC8010E94A5028E899091F1
:100B50007801981710F480937801F89EC001112451
:100B6000B80189559E4F0E944C02E091CB01F09153
:100B7000CC019E8986899817A8F2E0927501D2CFA0
:100B800080917601811109C080917501813009F051
:100B9000BFCF0E94650781E010C0C1E0809176015F
:100BA000882391F30E94B0048111C0937501809154
:100BB0007601815080937601F1CF0F900FBEDF91C7
:100BC000CF911F910F91FF90EF9008950F931F9376
:100BD000CF93DF938C01009719F40E9465071BC027
:100BE0008091700181110E942E020E94AA04C0917E
:100BF0007901D0917A01C00FD11F8091CB019091E2
:100C0000CC0102960E94A502CE010E941C030E9404
:100C10007005882311F3DF91CF911F910F910895F3
:100C200080917E01882349F10E94AA04C0917F012E
:100C30000E947005CC23A1F30FB6F8940F92E091B7
:100C40008401F0918501C681D781CE0102960E9470
:100C5000A50280917B01815080937B0180917E0170
:100C6000815080937E010F900FBE8F89988D0E94D6
:100C7000E702CE010E94E702D3CF8091A701823024
:100C800010F00E9465070E94F701CACFCF938091B0
:100C90007001882321F081E08093750174C0109267
:100CA0007501E091CB01F091CC010788F08DE02D2A
:100CB00080819181A281B381853A954AA54AB54A3E
:100CC000D9F484819581A681B781853A954AA54A50
:100CD000B54A91F480859185A285B385853A954A78
:100CE000A54AB54A49F484859585A685B785853A90
:100CF000954AA54AB54A61F06091CB017091CC014B
:100D00008091CB019091CC01675E7F4F0E943602AB
:100D1000C9E0E0917801CE9FF0011124E955FE4F22
:100D2000808181110CC080917801811102C00E94E4
:100D30002E0280917801815080937801EACFE09172
:100D4000780189E0E89FF0011124E955FE4FA18167
:100D5000B28112960D90BC91A02DB283A183CF01D8
:100D60000396A817B90731F412968D919C911397A9
:100D7000928381830180F281E02D86819781909317
:100D8000CC018093CB01CF91089531E1FC013083F8
:100D9000319722E220833197A3E3A08331976083C8
:100DA0003197708331971082319760E86083319773
:100DB0001082319762E06083319763E060833197FE
:100DC00064E06083319765E06083319766E060831B
:100DD000319767E06083319768E06083319769E01D
:100DE0006083319760E1608331973083319732E1DE
:100DF0003083319733E13083319734E13083319759
:100E000035E13083319736E13083319737E13083F4
:100E1000319738E13083319739E13083319730E2CF
:100E20003083319731E2308331972083319723E249
:100E300020833197408331975083319726E2208376
:100E4000319727E22083319728E22083319729E2E6
:100E50002083319720E32083319721E320838697F5
:100E6000089581E087BDEEE6F0E0808182608083B6
:100E7000A091CB01B091CC01CD91CDBFDD91DEBF72
:100E8000FF91EF91DF91CF91BF91AF919F918F91A2
:100E90007F916F915F914F913F912F911F910F9192
:100EA000FF90EF90DF90CF90BF90AF909F908F908A
:100EB0007F906F905F904F903F902F901F900F907A
:100EC0000FBE0F90089581E008950F920FB6F89429
:100ED0000F921F9211242F923F924F925F926F9226
:100EE0007F928F929F92AF92BF92CF92DF92EF92BA
:100EF000FF920F931F932F933F934F935F936F93A3
:100F00007F938F939F93AF93BF93CF93DF93EF9391
:100F1000FF93A091CB01B091CC010DB60D920EB60E
:100F20000D920E944606A091CB01B091CC01CD91CB
:100F3000CDBFDD91DEBFFF91EF91DF91CF91BF91EA
:100F4000AF919F918F917F916F915F914F913F9161
:100F50002F911F910F91FF90EF90DF90CF90BF9056
:100F6000AF909F908F907F906F905F904F903F9049
:100F70002F901F900F900FBE0F9008950F920FB6F5
:100F8000F8940F921F9211242F923F924F925F92EA
:100F90006F927F928F929F92AF92BF92CF92DF9289
:100FA000EF92FF920F931F932F933F934F935F9373
:100FB0006F937F938F939F93AF93BF93CF93DF9361
:100FC000EF93FF93A091CB01B091CC010DB60D92A0
:100FD0000EB60D920E94B00481110E944606A091A7
:100FE000CB01B091CC01CD91CDBFDD91DEBFFF91A2
:100FF000EF91DF91CF91BF91AF919F918F917F91B1
:101000006F915F914F913F912F911F910F91FF90A1
:10101000EF90DF90CF90BF90AF909F908F907F9098
:101020006F905F904F903F902F901F900F900FBE4A
:101030000F9008950E94BE0718950F931F93762F67
:1010400090E0FC01E058FF4F6491FC01EC56FF4F2B
:10105000E4917111762FF0E0EE0FFF1FE855FF4F7E
:101060008591949189019A013F70472F0E948E00CB
:10107000611571058105910531F06F5F7F4F8F4FCD
:101080009F4F9F7003C060E070E0CB011F910F91F4
:1010900008951F920F920FB60F9211242F933F9332
:1010A0008F939F93AF93BF938091CE019091CF0187
:1010B000A091D001B091D1013091CD0123E0230F57
:1010C0002D3720F40196A11DB11D05C026E8230F80
:1010D0000296A11DB11D2093CD018093CE01909366
:1010E000CF01A093D001B093D1018091D201909112
:1010F000D301A091D401B091D5010196A11DB11DDC
:101100008093D2019093D301A093D401B093D501E1
:10111000BF91AF919F918F913F912F910F900FBEF3
:101120000F901F901895789484B5826084BD84B523
:10113000816084BD85B5826085BD85B5816085BDD2
:10114000EEE6F0E0808181608083E1E8F0E01082EB
:10115000808182608083808181608083E0E8F0E02C
:10116000808181608083E1EBF0E080818460808316
:10117000E0EBF0E0808181608083EAE7F0E080814D
:1011800084608083808182608083808181608083AD
:101190008081806880831092C1000895833081F03F
:1011A00028F4813099F08230A1F008958730A9F0B9
:1011B0008830B9F08430D1F4809180008F7D03C0F5
:1011C000809180008F7780938000089584B58F7719
:1011D00002C084B58F7D84BD08958091B0008F7763
:1011E00003C08091B0008F7D8093B0000895CF93AD
:1011F000DF9390E0FC01E058FF4F2491FC01EC5696
:10120000FF4F8491882349F190E0880F991FFC01DA
:10121000E454FF4FA591B4918E549F4FFC01C591AA
:10122000D4919FB7611108C0F8948C9120958223C6
:101230008C93888182230AC0623051F4F8948C9197
:10124000322F309583238C938881822B888304C02E
:10125000F8948C91822B8C939FBFDF91CF9108954E
:101260000F931F93CF93DF931F92CDB7DEB7282F35
:1012700030E0F901E459FF4F8491F901E058FF4F44
:101280001491F901EC56FF4F04910023C9F0882313
:1012900021F069830E94CE086981E02FF0E0EE0F13
:1012A000FF1FEE54FF4FA591B4919FB7F8948C9116
:1012B000611103C01095812301C0812B8C939FBFC6
:1012C0000F90DF91CF911F910F910895CF93DF93EE
:1012D000282F30E0F901E459FF4F8491F901E058DB
:1012E000FF4FD491F901EC56FF4FC491CC2391F0FC
:1012F00081110E94CE08EC2FF0E0EE0FFF1FE855A1
:10130000FF4FA591B4912C912D2381E090E021F421
:1013100080E002C080E090E0DF91CF910895CF920D
:10132000DF92EF92FF920F931F93CF93DF936C01A5
:101330007A01EB01E60EF71E00E010E0CE15DF05A6
:1013400061F06991D601ED91FC910190F081E02D61
:10135000C6010995080F191FF1CFC801DF91CF9180
:101360001F910F91FF90EF90DF90CF90089561153E
:10137000710581F0DB010D900020E9F7AD014150CE
:101380005109461B570BDC01ED91FC910280F38162
:10139000E02D099480E090E00895EF92FF920F9382
:1013A0001F93CF93DF938C01FB01C0E0D0E06491E9
:1013B0007F018FEFE81AF80A662361F0D801ED91FA
:1013C000FC910190F081E02DC8010995C80FD91F4B
:1013D000F701EDCFCE01DF91CF911F910F91FF90DB
:1013E000EF9008950C94B709DC01ED91FC91019008
:1013F000F081E02D09946FE471E00C94B7090F932C
:101400001F93CF93DF93EC010E94CD098C01CE0195
:101410000E94FB09800F911FDF91CF911F910F91C7
:1014200008958F929F92AF92BF92CF92DF92EF92E8
:10143000FF920F931F93CF93DF93CDB7DEB7A197A2
:101440000FB6F894DEBF0FBECDBF7C01C42EE52FD2
:10145000CB01D22E19A221E02D1510F02AE0D22EB8
:101460008E010F5D1F4F8D2C912CA12CB12C6C2D5A
:101470007E2FA50194010E94AE0C8C2DD29E801966
:101480001124015011098A3014F4805D01C0895C77
:10149000F8018083211531054105510521F0C22E47
:1014A000E32FCA01E4CFB801C7010E94B709A19692
:1014B0000FB6F894DEBF0FBECDBFDF91CF911F9165
:1014C0000F91FF90EF90DF90CF90BF90AF909F90E3
:1014D0008F900895CF92DF92EF92FF920F931F9318
:1014E000CF93DF93EC016A017B012115310579F47B
:1014F000E881F9810190F081E02D642FDF91CF9197
:101500001F910F91FF90EF90DF90CF9009942A30B8
:101510003105E9F477FF1AC06DE20E94F4098C01ED
:1015200044275527BA014C195D096E097F092AE045
:10153000CE010E94110A800F911FDF91CF911F9160
:101540000F91FF90EF90DF90CF9008952AE0B701C0
:10155000A601CE01DF91CF911F910F91FF90EF90E7
:10156000DF90CF900C94110AFC01818D228D90E0C8
:10157000805C9F4F821B91098F7399270895FC010E
:10158000918D828D981731F0828DE80FF11D858D38
:1015900090E008958FEF9FEF0895FC01918D828D6B
:1015A000981761F0828DDF01A80FB11D5D968C91B7
:1015B000928D9F5F9F73928F90E008958FEF9FEFC2
:1015C000089581E69CE0892B49F080E090E0892B2A
:1015D00029F00E94610C81110C9400000895FC0117
:1015E000848DDF01A80FB11DA35ABF4F2C91848DAC
:1015F00090E001968F739927848FA689B7892C93E1
:10160000A089B1898C9180648C93938D848D98137B
:1016100006C00288F389E02D80818F7D8083089544
:10162000CF93DF93EC01888D8823C9F0EA89FB8989
:10163000808185FD05C0A889B9898C9186FD0FC080
:101640000FB607FCF5CF808185FFF2CFA889B98955
:101650008C9185FFEDCFCE010E94EF0AE7CFDF919D
:10166000CF910895CF92DF92FF920F931F93CF9364
:10167000DF931F92CDB7DEB76C0181E0D60158969B
:101680008C9358975B969C915B975C968C915C973A
:10169000981307C05096ED91FC915197808185FD7C
:1016A0002EC0F601038D10E00F5F1F4F0F7311273F
:1016B000F02EF601848DF81211C00FB607FCF9CF99
:1016C000D6015096ED91FC915197808185FFF1CF25
:1016D000C60169830E94EF0A6981EBCF838DE80F11
:1016E000F11DE35AFF4F6083D6015B960C935B9725
:1016F0005296ED91FC915397808180620CC0D60187
:101700005696ED91FC91579760835096ED91FC9120
:10171000519780818064808381E090E00F90DF9119
:10172000CF911F910F91FF90DF90CF900895BF92BE
:10173000CF92DF92EF92FF92CF93DF93EC016A0199
:101740007B01B22EE889F98982E08083411581EE20
:10175000580761057105A1F060E079E08DE390E044
:10176000A70196010E94AE0C21503109410951098F
:101770005695479537952795211580E1380798F0BC
:10178000E889F989108260E874E88EE190E0A701A9
:1017900096010E94AE0C215031094109510956951C
:1017A000479537952795EC85FD853083EE85FF8538
:1017B0002083188EEC89FD89B082EA89FB898081BB
:1017C00080618083EA89FB89808188608083EA89DF
:1017D000FB89808180688083EA89FB8980818F7D95
:1017E0008083DF91CF91FF90EF90DF90CF90BF90FB
:1017F000089508950E9493080E94F90B0E94B40175
:10180000C1EEDAE00E94F6012097E1F30E94E10ABE
:10181000F9CF1F920F920FB60F9211242F938F932F
:101820009F93EF93FF93E091E601F091E7018081B0
:10183000E091EC01F091ED0182FD12C09081809168
:10184000EF018F5F8F732091F001821751F0E091CB
:10185000EF01F0E0EA52FE4F958F8093EF0101C057
:101860008081FF91EF919F918F912F910F900FBEEB
:101870000F901F9018951F920F920FB60F92112480
:101880002F933F934F935F936F937F938F939F9388
:10189000AF93BF93EF93FF9386ED91E00E94EF0A21
:1018A000FF91EF91BF91AF919F918F917F916F9138
:1018B0005F914F913F912F910F900FBE0F901F900E
:1018C000189586ED91E00E94B40A21E0892B09F475
:1018D00020E0822F08951092D9011092D80188EE4D
:1018E00093E0A0E0B0E08093DA019093DB01A09355
:1018F000DC01B093DD0184E691E09093D701809301
:10190000D60185EC90E09093E3018093E20184ECB2
:1019100090E09093E5018093E40180EC90E0909357
:10192000E7018093E60181EC90E09093E9018093D8
:10193000E80182EC90E09093EB018093EA0186EC61
:1019400090E09093ED018093EC011092EF011092E2
:10195000F0011092F1011092F2010895A1E21A2E05
:10196000AA1BBB1BFD010DC0AA1FBB1FEE1FFF1F43
:10197000A217B307E407F50720F0A21BB30BE40B93
:10198000F50B661F771F881F991F1A9469F76095DA
:101990007095809590959B01AC01BD01CF01089594
:1019A000052E97FB1EF400940E94E70C57FD07D00C
:1019B0000E94AE0C07FC03D04EF40C94E70C50953B
:1019C0004095309521953F4F4F4F5F4F089590952B
:1019D0008095709561957F4F8F4F9F4F0895EE0FC3
:1019E000FF1F0590F491E02D0994CF93DF9382308F
:1019F000910510F482E090E0E0917502F09176029A
:101A000020E030E0A0E0B0E0309739F14081518132
:101A100048175907B8F04817590771F48281938124
:101A2000109729F013969C938E9312972CC0909345
:101A300076028093750227C02115310531F04217D7
:101A4000530718F0A901DB0101C0EF019A01BD01A4
:101A5000DF010280F381E02DD7CF21153105F9F0A8
:101A6000281B390B2430310580F48A819B81611554
:101A7000710521F0FB019383828304C09093760269
:101A800080937502FE01329644C0FE01E20FF31FFF
:101A90008193919322503109398328833AC0209150
:101AA000730230917402232B41F420910201309192
:101AB000030130937402209373022091000130914E
:101AC00001012115310541F42DB73EB740910401C4
:101AD00050910501241B350BE0917302F0917402C3
:101AE000E217F307A0F42E1B3F0B2817390778F0F5
:101AF000AC014E5F5F4F2417350748F04E0F5F1F54
:101B000050937402409373028193919302C0E0E07A
:101B1000F0E0CF01DF91CF910895CF93DF9300974D
:101B200009F487C0FC01329713821282C0917502BA
:101B3000D0917602209781F420813181280F391FBE
:101B400080917302909174028217930779F5F09354
:101B50007402E09373026DC0DE0120E030E0AE1746
:101B6000BF0750F412964D915C9113979D0141155A
:101B7000510509F1DA01F3CFB383A283408151818A
:101B8000840F951F8A179B0771F48D919C91119773
:101B9000840F951F02969183808312968D919C915C
:101BA0001397938382832115310529F4F0937602EC
:101BB000E09375023EC0D9011396FC93EE93129701
:101BC0004D915D91A40FB51FEA17FB0779F4808151
:101BD0009181840F951F0296D90111969C938E9343
:101BE0008281938113969C938E931297E0E0F0E0AC
:101BF0008A819B81009719F0FE01EC01F9CFCE019B
:101C0000029628813981820F931F209173023091AF
:101C100074022817390769F4309729F41092760274
:101C20001092750202C013821282D0937402C09384
:101C30007302DF91CF910895DC0101C06D93415093
:0A1C40005040E0F70895F894FFCF3C
:101C4A0000007702800020636D200020636D202051
:101C5A000020636D00466C6173685F4C4544004226
:101C6A006C696E6B5F42555A5A45520044697374E7
:101C7A00616E636961004465746563746172426F81
:101C8A00726465426C616E636F0049444C45000D95
:101C9A000A006E616E00696E66006F7666002E003D
:101CAA0000000000320B8F09B40ACD0ABF0A100BDC
:00000001FF
